{
  "address": "0x4eaB29997D332A666c3C366217Ab177cF9A7C436",
  "abi": [
    {
      "inputs": [],
      "stateMutability": "nonpayable",
      "type": "constructor"
    },
    {
      "anonymous": false,
      "inputs": [
        {
          "indexed": true,
          "internalType": "address",
          "name": "owner",
          "type": "address"
        },
        {
          "indexed": true,
          "internalType": "address",
          "name": "approved",
          "type": "address"
        },
        {
          "indexed": true,
          "internalType": "uint256",
          "name": "tokenId",
          "type": "uint256"
        }
      ],
      "name": "Approval",
      "type": "event"
    },
    {
      "anonymous": false,
      "inputs": [
        {
          "indexed": true,
          "internalType": "address",
          "name": "owner",
          "type": "address"
        },
        {
          "indexed": true,
          "internalType": "address",
          "name": "operator",
          "type": "address"
        },
        {
          "indexed": false,
          "internalType": "bool",
          "name": "approved",
          "type": "bool"
        }
      ],
      "name": "ApprovalForAll",
      "type": "event"
    },
    {
      "anonymous": false,
      "inputs": [
        {
          "indexed": true,
          "internalType": "address",
          "name": "previousOwner",
          "type": "address"
        },
        {
          "indexed": true,
          "internalType": "address",
          "name": "newOwner",
          "type": "address"
        }
      ],
      "name": "OwnershipTransferred",
      "type": "event"
    },
    {
      "anonymous": false,
      "inputs": [
        {
          "indexed": true,
          "internalType": "address",
          "name": "signer",
          "type": "address"
        },
        {
          "indexed": true,
          "internalType": "bytes32",
          "name": "messageHash",
          "type": "bytes32"
        }
      ],
      "name": "SignatureAdded",
      "type": "event"
    },
    {
      "anonymous": false,
      "inputs": [
        {
          "indexed": true,
          "internalType": "address",
          "name": "from",
          "type": "address"
        },
        {
          "indexed": true,
          "internalType": "address",
          "name": "to",
          "type": "address"
        },
        {
          "indexed": true,
          "internalType": "uint256",
          "name": "tokenId",
          "type": "uint256"
        }
      ],
      "name": "Transfer",
      "type": "event"
    },
    {
      "inputs": [
        {
          "internalType": "bytes32",
          "name": "messageHash",
          "type": "bytes32"
        }
      ],
      "name": "addSignature",
      "outputs": [],
      "stateMutability": "nonpayable",
      "type": "function"
    },
    {
      "inputs": [
        {
          "internalType": "address",
          "name": "to",
          "type": "address"
        },
        {
          "internalType": "uint256",
          "name": "tokenId",
          "type": "uint256"
        }
      ],
      "name": "approve",
      "outputs": [],
      "stateMutability": "nonpayable",
      "type": "function"
    },
    {
      "inputs": [
        {
          "internalType": "address",
          "name": "owner",
          "type": "address"
        }
      ],
      "name": "balanceOf",
      "outputs": [
        {
          "internalType": "uint256",
          "name": "",
          "type": "uint256"
        }
      ],
      "stateMutability": "view",
      "type": "function"
    },
    {
      "inputs": [
        {
          "internalType": "uint256",
          "name": "tokenId",
          "type": "uint256"
        }
      ],
      "name": "burn",
      "outputs": [],
      "stateMutability": "nonpayable",
      "type": "function"
    },
    {
      "inputs": [
        {
          "internalType": "address[]",
          "name": "_signers",
          "type": "address[]"
        },
        {
          "internalType": "address",
          "name": "signer",
          "type": "address"
        },
        {
          "internalType": "address",
          "name": "removeSigner",
          "type": "address"
        }
      ],
      "name": "changeSigner",
      "outputs": [
        {
          "internalType": "bool",
          "name": "",
          "type": "bool"
        }
      ],
      "stateMutability": "view",
      "type": "function"
    },
    {
      "inputs": [],
      "name": "getAllSigners",
      "outputs": [
        {
          "internalType": "address[]",
          "name": "",
          "type": "address[]"
        }
      ],
      "stateMutability": "view",
      "type": "function"
    },
    {
      "inputs": [
        {
          "internalType": "uint256",
          "name": "tokenId",
          "type": "uint256"
        }
      ],
      "name": "getApproved",
      "outputs": [
        {
          "internalType": "address",
          "name": "",
          "type": "address"
        }
      ],
      "stateMutability": "view",
      "type": "function"
    },
    {
      "inputs": [
        {
          "internalType": "bytes32",
          "name": "",
          "type": "bytes32"
        },
        {
          "internalType": "address",
          "name": "",
          "type": "address"
        }
      ],
      "name": "hasSigned",
      "outputs": [
        {
          "internalType": "bool",
          "name": "",
          "type": "bool"
        }
      ],
      "stateMutability": "view",
      "type": "function"
    },
    {
      "inputs": [
        {
          "internalType": "address",
          "name": "owner",
          "type": "address"
        },
        {
          "internalType": "address",
          "name": "operator",
          "type": "address"
        }
      ],
      "name": "isApprovedForAll",
      "outputs": [
        {
          "internalType": "bool",
          "name": "",
          "type": "bool"
        }
      ],
      "stateMutability": "view",
      "type": "function"
    },
    {
      "inputs": [
        {
          "internalType": "bytes32",
          "name": "messageHash",
          "type": "bytes32"
        }
      ],
      "name": "isFullySigned",
      "outputs": [
        {
          "internalType": "bool",
          "name": "",
          "type": "bool"
        }
      ],
      "stateMutability": "view",
      "type": "function"
    },
    {
      "inputs": [
        {
          "internalType": "address",
          "name": "",
          "type": "address"
        }
      ],
      "name": "isSigner",
      "outputs": [
        {
          "internalType": "bool",
          "name": "",
          "type": "bool"
        }
      ],
      "stateMutability": "view",
      "type": "function"
    },
    {
      "inputs": [],
      "name": "name",
      "outputs": [
        {
          "internalType": "string",
          "name": "",
          "type": "string"
        }
      ],
      "stateMutability": "view",
      "type": "function"
    },
    {
      "inputs": [],
      "name": "owner",
      "outputs": [
        {
          "internalType": "address",
          "name": "",
          "type": "address"
        }
      ],
      "stateMutability": "view",
      "type": "function"
    },
    {
      "inputs": [
        {
          "internalType": "uint256",
          "name": "tokenId",
          "type": "uint256"
        }
      ],
      "name": "ownerOf",
      "outputs": [
        {
          "internalType": "address",
          "name": "",
          "type": "address"
        }
      ],
      "stateMutability": "view",
      "type": "function"
    },
    {
      "inputs": [],
      "name": "renounceOwnership",
      "outputs": [],
      "stateMutability": "nonpayable",
      "type": "function"
    },
    {
      "inputs": [
        {
          "internalType": "address",
          "name": "to",
          "type": "address"
        },
        {
          "internalType": "bytes32",
          "name": "messageHash",
          "type": "bytes32"
        }
      ],
      "name": "safeMint",
      "outputs": [],
      "stateMutability": "nonpayable",
      "type": "function"
    },
    {
      "inputs": [
        {
          "internalType": "address",
          "name": "from",
          "type": "address"
        },
        {
          "internalType": "address",
          "name": "to",
          "type": "address"
        },
        {
          "internalType": "uint256",
          "name": "tokenId",
          "type": "uint256"
        }
      ],
      "name": "safeTransferFrom",
      "outputs": [],
      "stateMutability": "nonpayable",
      "type": "function"
    },
    {
      "inputs": [
        {
          "internalType": "address",
          "name": "from",
          "type": "address"
        },
        {
          "internalType": "address",
          "name": "to",
          "type": "address"
        },
        {
          "internalType": "uint256",
          "name": "tokenId",
          "type": "uint256"
        },
        {
          "internalType": "bytes",
          "name": "data",
          "type": "bytes"
        }
      ],
      "name": "safeTransferFrom",
      "outputs": [],
      "stateMutability": "nonpayable",
      "type": "function"
    },
    {
      "inputs": [
        {
          "internalType": "address",
          "name": "operator",
          "type": "address"
        },
        {
          "internalType": "bool",
          "name": "approved",
          "type": "bool"
        }
      ],
      "name": "setApprovalForAll",
      "outputs": [],
      "stateMutability": "nonpayable",
      "type": "function"
    },
    {
      "inputs": [
        {
          "internalType": "address",
          "name": "signer",
          "type": "address"
        }
      ],
      "name": "setSingleSigner",
      "outputs": [],
      "stateMutability": "nonpayable",
      "type": "function"
    },
    {
      "inputs": [
        {
          "internalType": "uint256",
          "name": "",
          "type": "uint256"
        }
      ],
      "name": "signers",
      "outputs": [
        {
          "internalType": "address",
          "name": "",
          "type": "address"
        }
      ],
      "stateMutability": "view",
      "type": "function"
    },
    {
      "inputs": [
        {
          "internalType": "bytes4",
          "name": "interfaceId",
          "type": "bytes4"
        }
      ],
      "name": "supportsInterface",
      "outputs": [
        {
          "internalType": "bool",
          "name": "",
          "type": "bool"
        }
      ],
      "stateMutability": "view",
      "type": "function"
    },
    {
      "inputs": [],
      "name": "symbol",
      "outputs": [
        {
          "internalType": "string",
          "name": "",
          "type": "string"
        }
      ],
      "stateMutability": "view",
      "type": "function"
    },
    {
      "inputs": [
        {
          "internalType": "uint256",
          "name": "tokenId",
          "type": "uint256"
        }
      ],
      "name": "tokenURI",
      "outputs": [
        {
          "internalType": "string",
          "name": "",
          "type": "string"
        }
      ],
      "stateMutability": "view",
      "type": "function"
    },
    {
      "inputs": [
        {
          "internalType": "address",
          "name": "from",
          "type": "address"
        },
        {
          "internalType": "address",
          "name": "to",
          "type": "address"
        },
        {
          "internalType": "uint256",
          "name": "tokenId",
          "type": "uint256"
        }
      ],
      "name": "transferFrom",
      "outputs": [],
      "stateMutability": "nonpayable",
      "type": "function"
    },
    {
      "inputs": [
        {
          "internalType": "address",
          "name": "newOwner",
          "type": "address"
        }
      ],
      "name": "transferOwnership",
      "outputs": [],
      "stateMutability": "nonpayable",
      "type": "function"
    }
  ],
  "transactionHash": "0x48f95f76b4b2c3355bb6eda5626dff943f58ecf0f5f7382c5ed4beb78fa2e233",
  "args": [],
  "numDeployments": 1,
  "solcInputHash": "fccbacf36d2acca25449b9cabbe3c13e",
  "bytecode": "0x60806040523480156200001157600080fd5b506040518060400160405280601781526020017f537570706c795472616e73706572656e6379546f6b656e0000000000000000008152506040518060400160405280600381526020016214d51560ea1b8152508160009081620000759190620001a2565b506001620000848282620001a2565b505050620000a16200009b620000a760201b60201c565b620000ab565b6200026e565b3390565b600680546001600160a01b038381166001600160a01b0319831681179093556040519116919082907f8be0079c531659141344cd1fd0a4f28419497f9722a3daafe3b4186f6b6457e090600090a35050565b634e487b7160e01b600052604160045260246000fd5b600181811c908216806200012857607f821691505b6020821081036200014957634e487b7160e01b600052602260045260246000fd5b50919050565b601f8211156200019d57600081815260208120601f850160051c81016020861015620001785750805b601f850160051c820191505b81811015620001995782815560010162000184565b5050505b505050565b81516001600160401b03811115620001be57620001be620000fd565b620001d681620001cf845462000113565b846200014f565b602080601f8311600181146200020e5760008415620001f55750858301515b600019600386901b1c1916600185901b17855562000199565b600085815260208120601f198616915b828110156200023f578886015182559484019460019091019084016200021e565b50858210156200025e5787850151600019600388901b60f8161c191681555b5050505050600190811b01905550565b611bd9806200027e6000396000f3fe608060405234801561001057600080fd5b506004361061018e5760003560e01c80636dba4807116100de578063a18f968811610097578063c87b56dd11610071578063c87b56dd14610387578063d42f2f351461039a578063e985e9c5146103af578063f2fde38b146103eb57600080fd5b8063a18f96881461034e578063a22cb46514610361578063b88d4fde1461037457600080fd5b80636dba4807146102d657806370a08231146102e9578063715018a61461030a5780637df73e27146103125780638da5cb5b1461033557806395d89b411461034657600080fd5b8063255b5cd91161014b57806342842e0e1161012557806342842e0e1461028a57806342966c681461029d5780636352211e146102b057806367d51cc4146102c357600080fd5b8063255b5cd91461023657806329832c0f146102495780633fd9fc0d1461027757600080fd5b806301ffc9a71461019357806306fdde03146101bb578063081812fc146101d0578063095ea7b3146101fb5780632079fb9a1461021057806323b872dd14610223575b600080fd5b6101a66101a13660046115d4565b6103fe565b60405190151581526020015b60405180910390f35b6101c3610450565b6040516101b29190611641565b6101e36101de366004611654565b6104e2565b6040516001600160a01b0390911681526020016101b2565b61020e610209366004611689565b610509565b005b6101e361021e366004611654565b610623565b61020e6102313660046116b3565b61064d565b6101a6610244366004611736565b61067f565b6101a6610257366004611805565b600a60209081526000928352604080842090915290825290205460ff1681565b61020e610285366004611831565b61071b565b61020e6102983660046116b3565b61078a565b61020e6102ab366004611654565b6107a5565b6101e36102be366004611654565b6107d6565b61020e6102d1366004611689565b610836565b61020e6102e4366004611654565b6108b4565b6102fc6102f7366004611831565b6109cb565b6040519081526020016101b2565b61020e610a51565b6101a6610320366004611831565b60096020526000908152604090205460ff1681565b6006546001600160a01b03166101e3565b6101c3610a65565b6101a661035c366004611654565b610a74565b61020e61036f36600461184c565b610af7565b61020e610382366004611888565b610b06565b6101c3610395366004611654565b610b3e565b6103a2610bb1565b6040516101b29190611948565b6101a66103bd366004611995565b6001600160a01b03918216600090815260056020908152604080832093909416825291909152205460ff1690565b61020e6103f9366004611831565b610c12565b60006001600160e01b031982166380ac58cd60e01b148061042f57506001600160e01b03198216635b5e139f60e01b145b8061044a57506301ffc9a760e01b6001600160e01b03198316145b92915050565b60606000805461045f906119bf565b80601f016020809104026020016040519081016040528092919081815260200182805461048b906119bf565b80156104d85780601f106104ad576101008083540402835291602001916104d8565b820191906000526020600020905b8154815290600101906020018083116104bb57829003601f168201915b5050505050905090565b60006104ed82610c88565b506000908152600460205260409020546001600160a01b031690565b6000610514826107d6565b9050806001600160a01b0316836001600160a01b0316036105865760405162461bcd60e51b815260206004820152602160248201527f4552433732313a20617070726f76616c20746f2063757272656e74206f776e656044820152603960f91b60648201526084015b60405180910390fd5b336001600160a01b03821614806105a257506105a281336103bd565b6106145760405162461bcd60e51b815260206004820152603d60248201527f4552433732313a20617070726f76652063616c6c6572206973206e6f7420746f60448201527f6b656e206f776e6572206f7220617070726f76656420666f7220616c6c000000606482015260840161057d565b61061e8383610ce7565b505050565b6008818154811061063357600080fd5b6000918252602090912001546001600160a01b0316905081565b610658335b82610d55565b6106745760405162461bcd60e51b815260040161057d906119f9565b61061e838383610dd4565b6000805b60085481101561070e57826001600160a01b03168582815181106106a9576106a9611a46565b60200260200101516001600160a01b0316036106fc57838582815181106106d2576106d2611a46565b60200260200101906001600160a01b031690816001600160a01b0316815250506001915050610714565b8061070681611a5c565b915050610683565b50600090505b9392505050565b610723610f38565b6008805460018181019092557ff3f7a9fe364faab93b216da50a3214154f22a0a2b415b23a84c8169e8b636ee30180546001600160a01b039093166001600160a01b031990931683179055600091825260096020526040909120805460ff19169091179055565b61061e83838360405180602001604052806000815250610b06565b6107ae33610652565b6107ca5760405162461bcd60e51b815260040161057d906119f9565b6107d381610f92565b50565b6000818152600260205260408120546001600160a01b03168061044a5760405162461bcd60e51b8152602060048201526018602482015277115490cdcc8c4e881a5b9d985b1a59081d1bdad95b88125160421b604482015260640161057d565b61083e610f38565b61084781610a74565b6108935760405162461bcd60e51b815260206004820152601c60248201527f5472616e73616374696f6e206e6f742066756c6c79207369676e656400000000604482015260640161057d565b60078054600091826108a483611a5c565b91905055905061061e8382611027565b3360009081526009602052604090205460ff166109135760405162461bcd60e51b815260206004820152601f60248201527f4f6e6c79207369676e6572732063616e20616464207369676e61747572657300604482015260640161057d565b6000818152600a6020908152604080832033845290915290205460ff161561097d5760405162461bcd60e51b815260206004820152601760248201527f5369676e617475726520616c7265616479206164646564000000000000000000604482015260640161057d565b6000818152600a60209081526040808320338085529252808320805460ff191660011790555183927f239f795bdbf221430ed76c684f97bb97a7058941758190635766dbc1938e008791a350565b60006001600160a01b038216610a355760405162461bcd60e51b815260206004820152602960248201527f4552433732313a2061646472657373207a65726f206973206e6f7420612076616044820152683634b21037bbb732b960b91b606482015260840161057d565b506001600160a01b031660009081526003602052604090205490565b610a59610f38565b610a636000611041565b565b60606001805461045f906119bf565b6000805b600854811015610aee576000838152600a602052604081206008805491929184908110610aa757610aa7611a46565b60009182526020808320909101546001600160a01b0316835282019290925260400190205460ff16610adc5750600092915050565b80610ae681611a5c565b915050610a78565b50600192915050565b610b02338383611093565b5050565b610b103383610d55565b610b2c5760405162461bcd60e51b815260040161057d906119f9565b610b3884848484611161565b50505050565b6060610b4982610c88565b6000610b6060408051602081019091526000815290565b90506000815111610b805760405180602001604052806000815250610714565b80610b8a84611194565b604051602001610b9b929190611a83565b6040516020818303038152906040529392505050565b606060088054806020026020016040519081016040528092919081815260200182805480156104d857602002820191906000526020600020905b81546001600160a01b03168152600190910190602001808311610beb575050505050905090565b610c1a610f38565b6001600160a01b038116610c7f5760405162461bcd60e51b815260206004820152602660248201527f4f776e61626c653a206e6577206f776e657220697320746865207a65726f206160448201526564647265737360d01b606482015260840161057d565b6107d381611041565b6000818152600260205260409020546001600160a01b03166107d35760405162461bcd60e51b8152602060048201526018602482015277115490cdcc8c4e881a5b9d985b1a59081d1bdad95b88125160421b604482015260640161057d565b600081815260046020526040902080546001600160a01b0319166001600160a01b0384169081179091558190610d1c826107d6565b6001600160a01b03167f8c5be1e5ebec7d5bd14f71427d1e84f3dd0314c0f7b2291e5b200ac8c7c3b92560405160405180910390a45050565b600080610d61836107d6565b9050806001600160a01b0316846001600160a01b03161480610da857506001600160a01b0380821660009081526005602090815260408083209388168352929052205460ff165b80610dcc5750836001600160a01b0316610dc1846104e2565b6001600160a01b0316145b949350505050565b826001600160a01b0316610de7826107d6565b6001600160a01b031614610e0d5760405162461bcd60e51b815260040161057d90611ab2565b6001600160a01b038216610e6f5760405162461bcd60e51b8152602060048201526024808201527f4552433732313a207472616e7366657220746f20746865207a65726f206164646044820152637265737360e01b606482015260840161057d565b826001600160a01b0316610e82826107d6565b6001600160a01b031614610ea85760405162461bcd60e51b815260040161057d90611ab2565b600081815260046020908152604080832080546001600160a01b03199081169091556001600160a01b0387811680865260038552838620805460001901905590871680865283862080546001019055868652600290945282852080549092168417909155905184937fddf252ad1be2c89b69c2b068fc378daa952ba7f163c4a11628f55a4df523b3ef91a4505050565b6006546001600160a01b03163314610a635760405162461bcd60e51b815260206004820181905260248201527f4f776e61626c653a2063616c6c6572206973206e6f7420746865206f776e6572604482015260640161057d565b6000610f9d826107d6565b9050610fa8826107d6565b600083815260046020908152604080832080546001600160a01b03199081169091556001600160a01b0385168085526003845282852080546000190190558785526002909352818420805490911690555192935084927fddf252ad1be2c89b69c2b068fc378daa952ba7f163c4a11628f55a4df523b3ef908390a45050565b610b02828260405180602001604052806000815250611227565b600680546001600160a01b038381166001600160a01b0319831681179093556040519116919082907f8be0079c531659141344cd1fd0a4f28419497f9722a3daafe3b4186f6b6457e090600090a35050565b816001600160a01b0316836001600160a01b0316036110f45760405162461bcd60e51b815260206004820152601960248201527f4552433732313a20617070726f766520746f2063616c6c657200000000000000604482015260640161057d565b6001600160a01b03838116600081815260056020908152604080832094871680845294825291829020805460ff191686151590811790915591519182527f17307eab39ab6107e8899845ad3d59bd9653f200f220920489ca2b5937696c31910160405180910390a3505050565b61116c848484610dd4565b6111788484848461125a565b610b385760405162461bcd60e51b815260040161057d90611af7565b606060006111a18361135b565b600101905060008167ffffffffffffffff8111156111c1576111c16116ef565b6040519080825280601f01601f1916602001820160405280156111eb576020820181803683370190505b5090508181016020015b600019016f181899199a1a9b1b9c1cb0b131b232b360811b600a86061a8153600a85049450846111f557509392505050565b6112318383611433565b61123e600084848461125a565b61061e5760405162461bcd60e51b815260040161057d90611af7565b60006001600160a01b0384163b1561135057604051630a85bd0160e11b81526001600160a01b0385169063150b7a029061129e903390899088908890600401611b49565b6020604051808303816000875af19250505080156112d9575060408051601f3d908101601f191682019092526112d691810190611b86565b60015b611336573d808015611307576040519150601f19603f3d011682016040523d82523d6000602084013e61130c565b606091505b50805160000361132e5760405162461bcd60e51b815260040161057d90611af7565b805181602001fd5b6001600160e01b031916630a85bd0160e11b149050610dcc565b506001949350505050565b60008072184f03e93ff9f4daa797ed6e38ed64bf6a1f0160401b831061139a5772184f03e93ff9f4daa797ed6e38ed64bf6a1f0160401b830492506040015b6d04ee2d6d415b85acef810000000083106113c6576d04ee2d6d415b85acef8100000000830492506020015b662386f26fc1000083106113e457662386f26fc10000830492506010015b6305f5e10083106113fc576305f5e100830492506008015b612710831061141057612710830492506004015b60648310611422576064830492506002015b600a831061044a5760010192915050565b6001600160a01b0382166114895760405162461bcd60e51b815260206004820181905260248201527f4552433732313a206d696e7420746f20746865207a65726f2061646472657373604482015260640161057d565b6000818152600260205260409020546001600160a01b0316156114ee5760405162461bcd60e51b815260206004820152601c60248201527f4552433732313a20746f6b656e20616c7265616479206d696e74656400000000604482015260640161057d565b6000818152600260205260409020546001600160a01b0316156115535760405162461bcd60e51b815260206004820152601c60248201527f4552433732313a20746f6b656e20616c7265616479206d696e74656400000000604482015260640161057d565b6001600160a01b038216600081815260036020908152604080832080546001019055848352600290915280822080546001600160a01b0319168417905551839291907fddf252ad1be2c89b69c2b068fc378daa952ba7f163c4a11628f55a4df523b3ef908290a45050565b6001600160e01b0319811681146107d357600080fd5b6000602082840312156115e657600080fd5b8135610714816115be565b60005b8381101561160c5781810151838201526020016115f4565b50506000910152565b6000815180845261162d8160208601602086016115f1565b601f01601f19169290920160200192915050565b6020815260006107146020830184611615565b60006020828403121561166657600080fd5b5035919050565b80356001600160a01b038116811461168457600080fd5b919050565b6000806040838503121561169c57600080fd5b6116a58361166d565b946020939093013593505050565b6000806000606084860312156116c857600080fd5b6116d18461166d565b92506116df6020850161166d565b9150604084013590509250925092565b634e487b7160e01b600052604160045260246000fd5b604051601f8201601f1916810167ffffffffffffffff8111828210171561172e5761172e6116ef565b604052919050565b60008060006060848603121561174b57600080fd5b833567ffffffffffffffff8082111561176357600080fd5b818601915086601f83011261177757600080fd5b813560208282111561178b5761178b6116ef565b8160051b925061179c818401611705565b828152928401810192818101908a8511156117b657600080fd5b948201945b848610156117db576117cc8661166d565b825294820194908201906117bb565b97506117ea905088820161166d565b9550505050506117fc6040850161166d565b90509250925092565b6000806040838503121561181857600080fd5b823591506118286020840161166d565b90509250929050565b60006020828403121561184357600080fd5b6107148261166d565b6000806040838503121561185f57600080fd5b6118688361166d565b91506020830135801515811461187d57600080fd5b809150509250929050565b6000806000806080858703121561189e57600080fd5b6118a78561166d565b935060206118b681870161166d565b935060408601359250606086013567ffffffffffffffff808211156118da57600080fd5b818801915088601f8301126118ee57600080fd5b813581811115611900576119006116ef565b611912601f8201601f19168501611705565b9150808252898482850101111561192857600080fd5b808484018584013760008482840101525080935050505092959194509250565b6020808252825182820181905260009190848201906040850190845b818110156119895783516001600160a01b031683529284019291840191600101611964565b50909695505050505050565b600080604083850312156119a857600080fd5b6119b18361166d565b91506118286020840161166d565b600181811c908216806119d357607f821691505b6020821081036119f357634e487b7160e01b600052602260045260246000fd5b50919050565b6020808252602d908201527f4552433732313a2063616c6c6572206973206e6f7420746f6b656e206f776e6560408201526c1c881bdc88185c1c1c9bdd9959609a1b606082015260800190565b634e487b7160e01b600052603260045260246000fd5b600060018201611a7c57634e487b7160e01b600052601160045260246000fd5b5060010190565b60008351611a958184602088016115f1565b835190830190611aa98183602088016115f1565b01949350505050565b60208082526025908201527f4552433732313a207472616e736665722066726f6d20696e636f72726563742060408201526437bbb732b960d91b606082015260800190565b60208082526032908201527f4552433732313a207472616e7366657220746f206e6f6e20455243373231526560408201527131b2b4bb32b91034b6b83632b6b2b73a32b960711b606082015260800190565b6001600160a01b0385811682528416602082015260408101839052608060608201819052600090611b7c90830184611615565b9695505050505050565b600060208284031215611b9857600080fd5b8151610714816115be56fea264697066735822122043be41e1385def5dd2c119a617ac282ca348ccec4fafa43b8412cc0dcc69b48d64736f6c63430008140033",
  "devdoc": {
    "events": {
      "Approval(address,address,uint256)": {
        "details": "Emitted when `owner` enables `approved` to manage the `tokenId` token."
      },
      "ApprovalForAll(address,address,bool)": {
        "details": "Emitted when `owner` enables or disables (`approved`) `operator` to manage all of its assets."
      },
      "Transfer(address,address,uint256)": {
        "details": "Emitted when `tokenId` token is transferred from `from` to `to`."
      }
    },
    "kind": "dev",
    "methods": {
      "approve(address,uint256)": {
        "details": "See {IERC721-approve}."
      },
      "balanceOf(address)": {
        "details": "See {IERC721-balanceOf}."
      },
      "burn(uint256)": {
        "details": "Burns `tokenId`. See {ERC721-_burn}. Requirements: - The caller must own `tokenId` or be an approved operator."
      },
      "getApproved(uint256)": {
        "details": "See {IERC721-getApproved}."
      },
      "isApprovedForAll(address,address)": {
        "details": "See {IERC721-isApprovedForAll}."
      },
      "name()": {
        "details": "See {IERC721Metadata-name}."
      },
      "owner()": {
        "details": "Returns the address of the current owner."
      },
      "ownerOf(uint256)": {
        "details": "See {IERC721-ownerOf}."
      },
      "renounceOwnership()": {
        "details": "Leaves the contract without owner. It will not be possible to call `onlyOwner` functions anymore. Can only be called by the current owner. NOTE: Renouncing ownership will leave the contract without an owner, thereby removing any functionality that is only available to the owner."
      },
      "safeTransferFrom(address,address,uint256)": {
        "details": "See {IERC721-safeTransferFrom}."
      },
      "safeTransferFrom(address,address,uint256,bytes)": {
        "details": "See {IERC721-safeTransferFrom}."
      },
      "setApprovalForAll(address,bool)": {
        "details": "See {IERC721-setApprovalForAll}."
      },
      "supportsInterface(bytes4)": {
        "details": "See {IERC165-supportsInterface}."
      },
      "symbol()": {
        "details": "See {IERC721Metadata-symbol}."
      },
      "tokenURI(uint256)": {
        "details": "See {IERC721Metadata-tokenURI}."
      },
      "transferFrom(address,address,uint256)": {
        "details": "See {IERC721-transferFrom}."
      },
      "transferOwnership(address)": {
        "details": "Transfers ownership of the contract to a new account (`newOwner`). Can only be called by the current owner."
      }
    },
    "version": 1
  },
  "userdoc": {
    "kind": "user",
    "methods": {},
    "version": 1
  },
  "storageLayout": {
    "storage": [
      {
        "astId": 138,
        "contract": "contracts/SupplyTransperencyToken.sol:SupplyTransperencyToken",
        "label": "_name",
        "offset": 0,
        "slot": "0",
        "type": "t_string_storage"
      },
      {
        "astId": 140,
        "contract": "contracts/SupplyTransperencyToken.sol:SupplyTransperencyToken",
        "label": "_symbol",
        "offset": 0,
        "slot": "1",
        "type": "t_string_storage"
      },
      {
        "astId": 144,
        "contract": "contracts/SupplyTransperencyToken.sol:SupplyTransperencyToken",
        "label": "_owners",
        "offset": 0,
        "slot": "2",
        "type": "t_mapping(t_uint256,t_address)"
      },
      {
        "astId": 148,
        "contract": "contracts/SupplyTransperencyToken.sol:SupplyTransperencyToken",
        "label": "_balances",
        "offset": 0,
        "slot": "3",
        "type": "t_mapping(t_address,t_uint256)"
      },
      {
        "astId": 152,
        "contract": "contracts/SupplyTransperencyToken.sol:SupplyTransperencyToken",
        "label": "_tokenApprovals",
        "offset": 0,
        "slot": "4",
        "type": "t_mapping(t_uint256,t_address)"
      },
      {
        "astId": 158,
        "contract": "contracts/SupplyTransperencyToken.sol:SupplyTransperencyToken",
        "label": "_operatorApprovals",
        "offset": 0,
        "slot": "5",
        "type": "t_mapping(t_address,t_mapping(t_address,t_bool))"
      },
      {
        "astId": 7,
        "contract": "contracts/SupplyTransperencyToken.sol:SupplyTransperencyToken",
        "label": "_owner",
        "offset": 0,
        "slot": "6",
        "type": "t_address"
      },
      {
        "astId": 2797,
        "contract": "contracts/SupplyTransperencyToken.sol:SupplyTransperencyToken",
        "label": "_nextTokenId",
        "offset": 0,
        "slot": "7",
        "type": "t_uint256"
      },
      {
        "astId": 2800,
        "contract": "contracts/SupplyTransperencyToken.sol:SupplyTransperencyToken",
        "label": "signers",
        "offset": 0,
        "slot": "8",
        "type": "t_array(t_address)dyn_storage"
      },
      {
        "astId": 2804,
        "contract": "contracts/SupplyTransperencyToken.sol:SupplyTransperencyToken",
        "label": "isSigner",
        "offset": 0,
        "slot": "9",
        "type": "t_mapping(t_address,t_bool)"
      },
      {
        "astId": 2810,
        "contract": "contracts/SupplyTransperencyToken.sol:SupplyTransperencyToken",
        "label": "hasSigned",
        "offset": 0,
        "slot": "10",
        "type": "t_mapping(t_bytes32,t_mapping(t_address,t_bool))"
      }
    ],
    "types": {
      "t_address": {
        "encoding": "inplace",
        "label": "address",
        "numberOfBytes": "20"
      },
      "t_array(t_address)dyn_storage": {
        "base": "t_address",
        "encoding": "dynamic_array",
        "label": "address[]",
        "numberOfBytes": "32"
      },
      "t_bool": {
        "encoding": "inplace",
        "label": "bool",
        "numberOfBytes": "1"
      },
      "t_bytes32": {
        "encoding": "inplace",
        "label": "bytes32",
        "numberOfBytes": "32"
      },
      "t_mapping(t_address,t_bool)": {
        "encoding": "mapping",
        "key": "t_address",
        "label": "mapping(address => bool)",
        "numberOfBytes": "32",
        "value": "t_bool"
      },
      "t_mapping(t_address,t_mapping(t_address,t_bool))": {
        "encoding": "mapping",
        "key": "t_address",
        "label": "mapping(address => mapping(address => bool))",
        "numberOfBytes": "32",
        "value": "t_mapping(t_address,t_bool)"
      },
      "t_mapping(t_address,t_uint256)": {
        "encoding": "mapping",
        "key": "t_address",
        "label": "mapping(address => uint256)",
        "numberOfBytes": "32",
        "value": "t_uint256"
      },
      "t_mapping(t_bytes32,t_mapping(t_address,t_bool))": {
        "encoding": "mapping",
        "key": "t_bytes32",
        "label": "mapping(bytes32 => mapping(address => bool))",
        "numberOfBytes": "32",
        "value": "t_mapping(t_address,t_bool)"
      },
      "t_mapping(t_uint256,t_address)": {
        "encoding": "mapping",
        "key": "t_uint256",
        "label": "mapping(uint256 => address)",
        "numberOfBytes": "32",
        "value": "t_address"
      },
      "t_string_storage": {
        "encoding": "bytes",
        "label": "string",
        "numberOfBytes": "32"
      },
      "t_uint256": {
        "encoding": "inplace",
        "label": "uint256",
        "numberOfBytes": "32"
      }
    }
  }
}